{
  "contractName": "Evaluator",
  "abi": [
    {
      "inputs": [
        {
          "internalType": "contract ERC20TD",
          "name": "_TDERC20",
          "type": "address"
        }
      ],
      "stateMutability": "nonpayable",
      "type": "constructor"
    },
    {
      "anonymous": false,
      "inputs": [
        {
          "indexed": false,
          "internalType": "address",
          "name": "erc20Address",
          "type": "address"
        }
      ],
      "name": "constructedCorrectly",
      "type": "event"
    },
    {
      "anonymous": false,
      "inputs": [
        {
          "indexed": false,
          "internalType": "string",
          "name": "ticker",
          "type": "string"
        },
        {
          "indexed": false,
          "internalType": "uint256",
          "name": "supply",
          "type": "uint256"
        }
      ],
      "name": "newRandomTickerAndSupply",
      "type": "event"
    },
    {
      "stateMutability": "payable",
      "type": "fallback"
    },
    {
      "inputs": [
        {
          "internalType": "address",
          "name": "",
          "type": "address"
        }
      ],
      "name": "assignedSupply",
      "outputs": [
        {
          "internalType": "uint256",
          "name": "",
          "type": "uint256"
        }
      ],
      "stateMutability": "view",
      "type": "function"
    },
    {
      "inputs": [
        {
          "internalType": "address",
          "name": "",
          "type": "address"
        }
      ],
      "name": "assignedTicker",
      "outputs": [
        {
          "internalType": "string",
          "name": "",
          "type": "string"
        }
      ],
      "stateMutability": "view",
      "type": "function"
    },
    {
      "inputs": [
        {
          "internalType": "address",
          "name": "",
          "type": "address"
        }
      ],
      "name": "ex8Tier1AmountBought",
      "outputs": [
        {
          "internalType": "uint256",
          "name": "",
          "type": "uint256"
        }
      ],
      "stateMutability": "view",
      "type": "function"
    },
    {
      "inputs": [
        {
          "internalType": "address",
          "name": "",
          "type": "address"
        },
        {
          "internalType": "uint256",
          "name": "",
          "type": "uint256"
        }
      ],
      "name": "exerciceProgression",
      "outputs": [
        {
          "internalType": "bool",
          "name": "",
          "type": "bool"
        }
      ],
      "stateMutability": "view",
      "type": "function"
    },
    {
      "inputs": [
        {
          "internalType": "address",
          "name": "",
          "type": "address"
        }
      ],
      "name": "hasBeenPaired",
      "outputs": [
        {
          "internalType": "bool",
          "name": "",
          "type": "bool"
        }
      ],
      "stateMutability": "view",
      "type": "function"
    },
    {
      "inputs": [],
      "name": "nextValueStoreRank",
      "outputs": [
        {
          "internalType": "uint256",
          "name": "",
          "type": "uint256"
        }
      ],
      "stateMutability": "view",
      "type": "function"
    },
    {
      "inputs": [
        {
          "internalType": "address",
          "name": "",
          "type": "address"
        }
      ],
      "name": "studentErc20",
      "outputs": [
        {
          "internalType": "contract ExerciceSolution",
          "name": "",
          "type": "address"
        }
      ],
      "stateMutability": "view",
      "type": "function"
    },
    {
      "inputs": [
        {
          "internalType": "address",
          "name": "",
          "type": "address"
        }
      ],
      "name": "teachers",
      "outputs": [
        {
          "internalType": "bool",
          "name": "",
          "type": "bool"
        }
      ],
      "stateMutability": "view",
      "type": "function"
    },
    {
      "stateMutability": "payable",
      "type": "receive"
    },
    {
      "inputs": [],
      "name": "ex1_getTickerAndSupply",
      "outputs": [],
      "stateMutability": "nonpayable",
      "type": "function"
    },
    {
      "inputs": [],
      "name": "ex2_testErc20TickerAndSupply",
      "outputs": [],
      "stateMutability": "nonpayable",
      "type": "function"
    },
    {
      "inputs": [],
      "name": "ex3_testGetToken",
      "outputs": [],
      "stateMutability": "nonpayable",
      "type": "function"
    },
    {
      "inputs": [],
      "name": "ex4_testBuyToken",
      "outputs": [],
      "stateMutability": "nonpayable",
      "type": "function"
    },
    {
      "inputs": [],
      "name": "ex5_testDenyListing",
      "outputs": [],
      "stateMutability": "nonpayable",
      "type": "function"
    },
    {
      "inputs": [],
      "name": "ex6_testAllowListing",
      "outputs": [],
      "stateMutability": "nonpayable",
      "type": "function"
    },
    {
      "inputs": [],
      "name": "ex7_testDenyListing",
      "outputs": [],
      "stateMutability": "nonpayable",
      "type": "function"
    },
    {
      "inputs": [],
      "name": "ex8_testTier1Listing",
      "outputs": [],
      "stateMutability": "nonpayable",
      "type": "function"
    },
    {
      "inputs": [],
      "name": "ex9_testTier2Listing",
      "outputs": [],
      "stateMutability": "nonpayable",
      "type": "function"
    },
    {
      "inputs": [
        {
          "internalType": "contract ExerciceSolution",
          "name": "studentExercice",
          "type": "address"
        }
      ],
      "name": "submitExercice",
      "outputs": [],
      "stateMutability": "nonpayable",
      "type": "function"
    },
    {
      "inputs": [
        {
          "internalType": "bytes32",
          "name": "_bytes32",
          "type": "bytes32"
        }
      ],
      "name": "bytes32ToString",
      "outputs": [
        {
          "internalType": "string",
          "name": "",
          "type": "string"
        }
      ],
      "stateMutability": "pure",
      "type": "function"
    },
    {
      "inputs": [
        {
          "internalType": "address",
          "name": "studentAddres",
          "type": "address"
        }
      ],
      "name": "readTicker",
      "outputs": [
        {
          "internalType": "string",
          "name": "",
          "type": "string"
        }
      ],
      "stateMutability": "view",
      "type": "function"
    },
    {
      "inputs": [
        {
          "internalType": "address",
          "name": "studentAddres",
          "type": "address"
        }
      ],
      "name": "readSupply",
      "outputs": [
        {
          "internalType": "uint256",
          "name": "",
          "type": "uint256"
        }
      ],
      "stateMutability": "view",
      "type": "function"
    },
    {
      "inputs": [
        {
          "internalType": "uint256[20]",
          "name": "_randomSupplies",
          "type": "uint256[20]"
        },
        {
          "internalType": "string[20]",
          "name": "_randomTickers",
          "type": "string[20]"
        }
      ],
      "name": "setRandomTickersAndSupply",
      "outputs": [],
      "stateMutability": "nonpayable",
      "type": "function"
    }
  ],
  "bytecode": "0x60806040523480156200001157600080fd5b5060405162004e2238038062004e228339818101604052620000379190810190620000f1565b80600160006101000a81548173ffffffffffffffffffffffffffffffffffffffff021916908373ffffffffffffffffffffffffffffffffffffffff1602179055507f2915b3b4e0613c6b63dca39a375dd8c9f1de68d9e208a0713b7624260e2d0812600160009054906101000a900473ffffffffffffffffffffffffffffffffffffffff16604051620000cb91906200012e565b60405180910390a150620001ad565b600081519050620000eb8162000193565b92915050565b6000602082840312156200010457600080fd5b60006200011484828501620000da565b91505092915050565b62000128816200014b565b82525050565b60006020820190506200014560008301846200011d565b92915050565b6000620001588262000173565b9050919050565b60006200016c826200014b565b9050919050565b600073ffffffffffffffffffffffffffffffffffffffff82169050919050565b6200019e816200015f565b8114620001aa57600080fd5b50565b614c6580620001bd6000396000f3fe6080604052600436106101385760003560e01c8063a6c611d9116100ab578063e22b5dcf1161006f578063e22b5dcf146103cd578063e22ebfd61461040a578063e8b4cb5614610447578063ec65b16e1461045e578063f0a47f7814610475578063f4fdbb88146104b25761013f565b8063a6c611d914610322578063afda5dc514610339578063b32b559f14610376578063ccd64d7d1461038d578063d1a2e76e146103a45761013f565b806339119dce116100fd57806339119dce146102125780633bc409561461023d5780637db60caf146102545780639201de551461029157806398f02097146102ce5780639f91f516146102e55761013f565b8062a3491a146101415780630af78edc1461017e57806316f4b99f146101955780632236d353146101ac5780632e64c500146101d55761013f565b3661013f57005b005b34801561014d57600080fd5b506101686004803603610163919081019061411d565b6104ef565b60405161017591906147d6565b60405180910390f35b34801561018a57600080fd5b5061019361059f565b005b3480156101a157600080fd5b506101aa61092f565b005b3480156101b857600080fd5b506101d360048036036101ce919081019061422a565b610df6565b005b3480156101e157600080fd5b506101fc60048036036101f79190810190614146565b6111a2565b60405161020991906147a0565b60405180910390f35b34801561021e57600080fd5b506102276111d1565b604051610234919061494a565b60405180910390f35b34801561024957600080fd5b506102526111d7565b005b34801561026057600080fd5b5061027b6004803603610276919081019061411d565b611702565b604051610288919061494a565b60405180910390f35b34801561029d57600080fd5b506102b860048036036102b39190810190614201565b61171a565b6040516102c591906147f8565b60405180910390f35b3480156102da57600080fd5b506102e3611877565b005b3480156102f157600080fd5b5061030c6004803603610307919081019061411d565b611ac8565b604051610319919061494a565b60405180910390f35b34801561032e57600080fd5b50610337611b11565b005b34801561034557600080fd5b50610360600480360361035b919081019061411d565b612029565b60405161036d919061494a565b60405180910390f35b34801561038257600080fd5b5061038b612041565b005b34801561039957600080fd5b506103a26121aa565b005b3480156103b057600080fd5b506103cb60048036036103c69190810190614182565b612681565b005b3480156103d957600080fd5b506103f460048036036103ef919081019061411d565b6127d6565b60405161040191906147f8565b60405180910390f35b34801561041657600080fd5b50610431600480360361042c919081019061411d565b6128b7565b60405161043e91906147bb565b60405180910390f35b34801561045357600080fd5b5061045c6128ea565b005b34801561046a57600080fd5b506104736131f9565b005b34801561048157600080fd5b5061049c6004803603610497919081019061411d565b613616565b6040516104a991906147a0565b60405180910390f35b3480156104be57600080fd5b506104d960048036036104d4919081019061411d565b613636565b6040516104e691906147a0565b60405180910390f35b602b6020528060005260406000206000915090508054600181600116156101000203166002900480601f0160208091040260200160405190810160405280929190818152602001828054600181600116156101000203166002900480156105975780601f1061056c57610100808354040283529160200191610597565b820191906000526020600020905b81548152906001019060200180831161057a57829003601f168201915b505050505081565b600073ffffffffffffffffffffffffffffffffffffffff16602e60003373ffffffffffffffffffffffffffffffffffffffff1673ffffffffffffffffffffffffffffffffffffffff16815260200190815260200160002060009054906101000a900473ffffffffffffffffffffffffffffffffffffffff1673ffffffffffffffffffffffffffffffffffffffff16141561066e576040517f08c379a0000000000000000000000000000000000000000000000000000000008152600401610665906148ea565b60405180910390fd5b602d60003373ffffffffffffffffffffffffffffffffffffffff1673ffffffffffffffffffffffffffffffffffffffff16815260200190815260200160002060006005815260200190815260200160002060009054906101000a900460ff166106d657600080fd5b602e60003373ffffffffffffffffffffffffffffffffffffffff1673ffffffffffffffffffffffffffffffffffffffff16815260200190815260200160002060009054906101000a900473ffffffffffffffffffffffffffffffffffffffff1673ffffffffffffffffffffffffffffffffffffffff1663d48a87f1306040518263ffffffff1660e01b815260040161076e91906146e1565b60206040518083038186803b15801561078657600080fd5b505afa15801561079a573d6000803e3d6000fd5b505050506040513d601f19601f820116820180604052506107be91908101906141d8565b6107c757600080fd5b6107cf6111d7565b602d60003373ffffffffffffffffffffffffffffffffffffffff1673ffffffffffffffffffffffffffffffffffffffff16815260200190815260200160002060006006815260200190815260200160002060009054906101000a900460ff1661092d576001602d60003373ffffffffffffffffffffffffffffffffffffffff1673ffffffffffffffffffffffffffffffffffffffff16815260200190815260200160002060006006815260200190815260200160002060006101000a81548160ff021916908315150217905550600160009054906101000a900473ffffffffffffffffffffffffffffffffffffffff1673ffffffffffffffffffffffffffffffffffffffff1663158a49883360026040518363ffffffff1660e01b81526004016108fa929190614777565b600060405180830381600087803b15801561091457600080fd5b505af1158015610928573d6000803e3d6000fd5b505050505b565b600073ffffffffffffffffffffffffffffffffffffffff16602e60003373ffffffffffffffffffffffffffffffffffffffff1673ffffffffffffffffffffffffffffffffffffffff16815260200190815260200160002060009054906101000a900473ffffffffffffffffffffffffffffffffffffffff1673ffffffffffffffffffffffffffffffffffffffff1614156109fe576040517f08c379a00000000000000000000000000000000000000000000000000000000081526004016109f5906148ea565b60405180910390fd5b602d60003373ffffffffffffffffffffffffffffffffffffffff1673ffffffffffffffffffffffffffffffffffffffff16815260200190815260200160002060006007815260200190815260200160002060009054906101000a900460ff16610a6657600080fd5b602e60003373ffffffffffffffffffffffffffffffffffffffff1673ffffffffffffffffffffffffffffffffffffffff16815260200190815260200160002060009054906101000a900473ffffffffffffffffffffffffffffffffffffffff1673ffffffffffffffffffffffffffffffffffffffff1663d48a87f1306040518263ffffffff1660e01b8152600401610afe91906146e1565b60206040518083038186803b158015610b1657600080fd5b505afa158015610b2a573d6000803e3d6000fd5b505050506040513d601f19601f82011682018060405250610b4e91908101906141d8565b610b5757600080fd5b6001602e60003373ffffffffffffffffffffffffffffffffffffffff1673ffffffffffffffffffffffffffffffffffffffff16815260200190815260200160002060009054906101000a900473ffffffffffffffffffffffffffffffffffffffff1673ffffffffffffffffffffffffffffffffffffffff16638dd3fda9306040518263ffffffff1660e01b8152600401610bf191906146e1565b60206040518083038186803b158015610c0957600080fd5b505afa158015610c1d573d6000803e3d6000fd5b505050506040513d601f19601f82011682018060405250610c419190810190614294565b14610c4b57600080fd5b610c53613656565b602f60003373ffffffffffffffffffffffffffffffffffffffff1673ffffffffffffffffffffffffffffffffffffffff16815260200190815260200160002081905550602d60003373ffffffffffffffffffffffffffffffffffffffff1673ffffffffffffffffffffffffffffffffffffffff16815260200190815260200160002060006008815260200190815260200160002060009054906101000a900460ff16610df4576001602d60003373ffffffffffffffffffffffffffffffffffffffff1673ffffffffffffffffffffffffffffffffffffffff16815260200190815260200160002060006008815260200190815260200160002060006101000a81548160ff021916908315150217905550600160009054906101000a900473ffffffffffffffffffffffffffffffffffffffff1673ffffffffffffffffffffffffffffffffffffffff1663158a49883360026040518363ffffffff1660e01b8152600401610dc1929190614777565b600060405180830381600087803b158015610ddb57600080fd5b505af1158015610def573d6000803e3d6000fd5b505050505b565b603060008273ffffffffffffffffffffffffffffffffffffffff1673ffffffffffffffffffffffffffffffffffffffff16815260200190815260200160002060009054906101000a900460ff1615610e4d57600080fd5b80602e60003373ffffffffffffffffffffffffffffffffffffffff1673ffffffffffffffffffffffffffffffffffffffff16815260200190815260200160002060006101000a81548173ffffffffffffffffffffffffffffffffffffffff021916908373ffffffffffffffffffffffffffffffffffffffff1602179055506001603060008373ffffffffffffffffffffffffffffffffffffffff1673ffffffffffffffffffffffffffffffffffffffff16815260200190815260200160002060006101000a81548160ff021916908315150217905550602d60003373ffffffffffffffffffffffffffffffffffffffff1673ffffffffffffffffffffffffffffffffffffffff168152602001908152602001600020600080815260200190815260200160002060009054906101000a900460ff1661119f576001602d60003373ffffffffffffffffffffffffffffffffffffffff1673ffffffffffffffffffffffffffffffffffffffff168152602001908152602001600020600080815260200190815260200160002060006101000a81548160ff021916908315150217905550600160009054906101000a900473ffffffffffffffffffffffffffffffffffffffff1673ffffffffffffffffffffffffffffffffffffffff1663158a49883360026040518363ffffffff1660e01b815260040161104c929190614777565b600060405180830381600087803b15801561106657600080fd5b505af115801561107a573d6000803e3d6000fd5b50505050600160009054906101000a900473ffffffffffffffffffffffffffffffffffffffff1673ffffffffffffffffffffffffffffffffffffffff1663158a49883360026040518363ffffffff1660e01b81526004016110dc929190614777565b600060405180830381600087803b1580156110f657600080fd5b505af115801561110a573d6000803e3d6000fd5b50505050600160009054906101000a900473ffffffffffffffffffffffffffffffffffffffff1673ffffffffffffffffffffffffffffffffffffffff1663158a49883360016040518363ffffffff1660e01b815260040161116c92919061474e565b600060405180830381600087803b15801561118657600080fd5b505af115801561119a573d6000803e3d6000fd5b505050505b50565b602d6020528160005260406000206020528060005260406000206000915091509054906101000a900460ff1681565b602a5481565b600073ffffffffffffffffffffffffffffffffffffffff16602e60003373ffffffffffffffffffffffffffffffffffffffff1673ffffffffffffffffffffffffffffffffffffffff16815260200190815260200160002060009054906101000a900473ffffffffffffffffffffffffffffffffffffffff1673ffffffffffffffffffffffffffffffffffffffff1614156112a6576040517f08c379a000000000000000000000000000000000000000000000000000000000815260040161129d906148ea565b60405180910390fd5b6000602e60003373ffffffffffffffffffffffffffffffffffffffff1673ffffffffffffffffffffffffffffffffffffffff16815260200190815260200160002060009054906101000a900473ffffffffffffffffffffffffffffffffffffffff1673ffffffffffffffffffffffffffffffffffffffff166370a08231306040518263ffffffff1660e01b815260040161134091906146e1565b60206040518083038186803b15801561135857600080fd5b505afa15801561136c573d6000803e3d6000fd5b505050506040513d601f19601f820116820180604052506113909190810190614294565b9050602e60003373ffffffffffffffffffffffffffffffffffffffff1673ffffffffffffffffffffffffffffffffffffffff16815260200190815260200160002060009054906101000a900473ffffffffffffffffffffffffffffffffffffffff1673ffffffffffffffffffffffffffffffffffffffff166321df0da76040518163ffffffff1660e01b8152600401602060405180830381600087803b15801561143957600080fd5b505af115801561144d573d6000803e3d6000fd5b505050506040513d601f19601f8201168201806040525061147191908101906141d8565b506000602e60003373ffffffffffffffffffffffffffffffffffffffff1673ffffffffffffffffffffffffffffffffffffffff16815260200190815260200160002060009054906101000a900473ffffffffffffffffffffffffffffffffffffffff1673ffffffffffffffffffffffffffffffffffffffff166370a08231306040518263ffffffff1660e01b815260040161150c91906146e1565b60206040518083038186803b15801561152457600080fd5b505afa158015611538573d6000803e3d6000fd5b505050506040513d601f19601f8201168201806040525061155c9190810190614294565b90508082106115a0576040517f08c379a00000000000000000000000000000000000000000000000000000000081526004016115979061488a565b60405180910390fd5b602d60003373ffffffffffffffffffffffffffffffffffffffff1673ffffffffffffffffffffffffffffffffffffffff16815260200190815260200160002060006003815260200190815260200160002060009054906101000a900460ff166116fe576001602d60003373ffffffffffffffffffffffffffffffffffffffff1673ffffffffffffffffffffffffffffffffffffffff16815260200190815260200160002060006003815260200190815260200160002060006101000a81548160ff021916908315150217905550600160009054906101000a900473ffffffffffffffffffffffffffffffffffffffff1673ffffffffffffffffffffffffffffffffffffffff1663158a49883360026040518363ffffffff1660e01b81526004016116cb929190614777565b600060405180830381600087803b1580156116e557600080fd5b505af11580156116f9573d6000803e3d6000fd5b505050505b5050565b602c6020528060005260406000206000915090505481565b606060008090505b60208160ff1610801561176d5750600060f81b838260ff166020811061174457fe5b1a60f81b7effffffffffffffffffffffffffffffffffffffffffffffffffffffffffffff191614155b1561177f578080600101915050611722565b60608160ff166040519080825280601f01601f1916602001820160405280156117b75781602001600182028038833980820191505090505b509050600091505b60208260ff1610801561180a5750600060f81b848360ff16602081106117e157fe5b1a60f81b7effffffffffffffffffffffffffffffffffffffffffffffffffffffffffffff191614155b1561186d57838260ff166020811061181e57fe5b1a60f81b818360ff168151811061183157fe5b60200101907effffffffffffffffffffffffffffffffffffffffffffffffffffffffffffff1916908160001a90535081806001019250506117bf565b8092505050919050565b670de0b6b3a76400006002602a546014811061188f57fe5b015402602c60003373ffffffffffffffffffffffffffffffffffffffff1673ffffffffffffffffffffffffffffffffffffffff168152602001908152602001600020819055506016602a54601481106118e457fe5b01602b60003373ffffffffffffffffffffffffffffffffffffffff1673ffffffffffffffffffffffffffffffffffffffff1681526020019081526020016000209080546001816001161561010002031660029004611943929190613ceb565b506001602a600082825401925050819055506014602a5410611968576000602a819055505b602d60003373ffffffffffffffffffffffffffffffffffffffff1673ffffffffffffffffffffffffffffffffffffffff16815260200190815260200160002060006001815260200190815260200160002060009054906101000a900460ff16611ac6576001602d60003373ffffffffffffffffffffffffffffffffffffffff1673ffffffffffffffffffffffffffffffffffffffff16815260200190815260200160002060006001815260200190815260200160002060006101000a81548160ff021916908315150217905550600160009054906101000a900473ffffffffffffffffffffffffffffffffffffffff1673ffffffffffffffffffffffffffffffffffffffff1663158a49883360016040518363ffffffff1660e01b8152600401611a9392919061474e565b600060405180830381600087803b158015611aad57600080fd5b505af1158015611ac1573d6000803e3d6000fd5b505050505b565b6000602c60008373ffffffffffffffffffffffffffffffffffffffff1673ffffffffffffffffffffffffffffffffffffffff168152602001908152602001600020549050919050565b600073ffffffffffffffffffffffffffffffffffffffff16602e60003373ffffffffffffffffffffffffffffffffffffffff1673ffffffffffffffffffffffffffffffffffffffff16815260200190815260200160002060009054906101000a900473ffffffffffffffffffffffffffffffffffffffff1673ffffffffffffffffffffffffffffffffffffffff161415611be0576040517f08c379a0000000000000000000000000000000000000000000000000000000008152600401611bd7906148ea565b60405180910390fd5b602e60003373ffffffffffffffffffffffffffffffffffffffff1673ffffffffffffffffffffffffffffffffffffffff16815260200190815260200160002060009054906101000a900473ffffffffffffffffffffffffffffffffffffffff1673ffffffffffffffffffffffffffffffffffffffff1663d48a87f1306040518263ffffffff1660e01b8152600401611c7891906146e1565b60206040518083038186803b158015611c9057600080fd5b505afa158015611ca4573d6000803e3d6000fd5b505050506040513d601f19601f82011682018060405250611cc891908101906141d8565b15611cd257600080fd5b6000602e60003373ffffffffffffffffffffffffffffffffffffffff1673ffffffffffffffffffffffffffffffffffffffff16815260200190815260200160002060009054906101000a900473ffffffffffffffffffffffffffffffffffffffff1673ffffffffffffffffffffffffffffffffffffffff16638dd3fda9306040518263ffffffff1660e01b8152600401611d6c91906146e1565b60206040518083038186803b158015611d8457600080fd5b505afa158015611d98573d6000803e3d6000fd5b505050506040513d601f19601f82011682018060405250611dbc9190810190614294565b14611dc657600080fd5b600060019050602e60003373ffffffffffffffffffffffffffffffffffffffff1673ffffffffffffffffffffffffffffffffffffffff16815260200190815260200160002060009054906101000a900473ffffffffffffffffffffffffffffffffffffffff1673ffffffffffffffffffffffffffffffffffffffff1663a4821719655af3107a40006040518263ffffffff1660e01b81526004016020604051808303818588803b158015611e7957600080fd5b505af193505050508015611eab57506040513d601f19601f82011682018060405250611ea891908101906141d8565b60015b611eb85760009050611ebd565b809150505b8015611ec857600080fd5b602d60003373ffffffffffffffffffffffffffffffffffffffff1673ffffffffffffffffffffffffffffffffffffffff16815260200190815260200160002060006007815260200190815260200160002060009054906101000a900460ff16612026576001602d60003373ffffffffffffffffffffffffffffffffffffffff1673ffffffffffffffffffffffffffffffffffffffff16815260200190815260200160002060006007815260200190815260200160002060006101000a81548160ff021916908315150217905550600160009054906101000a900473ffffffffffffffffffffffffffffffffffffffff1673ffffffffffffffffffffffffffffffffffffffff1663158a49883360016040518363ffffffff1660e01b8152600401611ff392919061474e565b600060405180830381600087803b15801561200d57600080fd5b505af1158015612021573d6000803e3d6000fd5b505050505b50565b602f6020528060005260406000206000915090505481565b612049613656565b50602d60003373ffffffffffffffffffffffffffffffffffffffff1673ffffffffffffffffffffffffffffffffffffffff16815260200190815260200160002060006004815260200190815260200160002060009054906101000a900460ff166121a8576001602d60003373ffffffffffffffffffffffffffffffffffffffff1673ffffffffffffffffffffffffffffffffffffffff16815260200190815260200160002060006004815260200190815260200160002060006101000a81548160ff021916908315150217905550600160009054906101000a900473ffffffffffffffffffffffffffffffffffffffff1673ffffffffffffffffffffffffffffffffffffffff1663158a49883360026040518363ffffffff1660e01b8152600401612175929190614777565b600060405180830381600087803b15801561218f57600080fd5b505af11580156121a3573d6000803e3d6000fd5b505050505b565b600073ffffffffffffffffffffffffffffffffffffffff16602e60003373ffffffffffffffffffffffffffffffffffffffff1673ffffffffffffffffffffffffffffffffffffffff16815260200190815260200160002060009054906101000a900473ffffffffffffffffffffffffffffffffffffffff1673ffffffffffffffffffffffffffffffffffffffff161415612279576040517f08c379a0000000000000000000000000000000000000000000000000000000008152600401612270906148ea565b60405180910390fd5b602d60003373ffffffffffffffffffffffffffffffffffffffff1673ffffffffffffffffffffffffffffffffffffffff16815260200190815260200160002060006007815260200190815260200160002060009054906101000a900460ff166122e157600080fd5b602e60003373ffffffffffffffffffffffffffffffffffffffff1673ffffffffffffffffffffffffffffffffffffffff16815260200190815260200160002060009054906101000a900473ffffffffffffffffffffffffffffffffffffffff1673ffffffffffffffffffffffffffffffffffffffff1663d48a87f1306040518263ffffffff1660e01b815260040161237991906146e1565b60206040518083038186803b15801561239157600080fd5b505afa1580156123a5573d6000803e3d6000fd5b505050506040513d601f19601f820116820180604052506123c991908101906141d8565b6123d257600080fd5b6002602e60003373ffffffffffffffffffffffffffffffffffffffff1673ffffffffffffffffffffffffffffffffffffffff16815260200190815260200160002060009054906101000a900473ffffffffffffffffffffffffffffffffffffffff1673ffffffffffffffffffffffffffffffffffffffff16638dd3fda9306040518263ffffffff1660e01b815260040161246c91906146e1565b60206040518083038186803b15801561248457600080fd5b505afa158015612498573d6000803e3d6000fd5b505050506040513d601f19601f820116820180604052506124bc9190810190614294565b146124c657600080fd5b60006124d0613656565b9050602f60003373ffffffffffffffffffffffffffffffffffffffff1673ffffffffffffffffffffffffffffffffffffffff16815260200190815260200160002054600202811461252057600080fd5b602d60003373ffffffffffffffffffffffffffffffffffffffff1673ffffffffffffffffffffffffffffffffffffffff16815260200190815260200160002060006009815260200190815260200160002060009054906101000a900460ff1661267e576001602d60003373ffffffffffffffffffffffffffffffffffffffff1673ffffffffffffffffffffffffffffffffffffffff16815260200190815260200160002060006009815260200190815260200160002060006101000a81548160ff021916908315150217905550600160009054906101000a900473ffffffffffffffffffffffffffffffffffffffff1673ffffffffffffffffffffffffffffffffffffffff1663158a49883360026040518363ffffffff1660e01b815260040161264b929190614777565b600060405180830381600087803b15801561266557600080fd5b505af1158015612679573d6000803e3d6000fd5b505050505b50565b600160009054906101000a900473ffffffffffffffffffffffffffffffffffffffff1673ffffffffffffffffffffffffffffffffffffffff1663f0a47f78336040518263ffffffff1660e01b81526004016126dc91906146e1565b60206040518083038186803b1580156126f457600080fd5b505afa158015612708573d6000803e3d6000fd5b505050506040513d601f19601f8201168201806040525061272c91908101906141d8565b61273557600080fd5b816002906014612746929190613d72565b50806016906014612758929190613db2565b506000602a8190555060008090505b60148110156127d1577fcc783cf5d663570e7c7576cec91f24975b35b957c8dd67766710be25c48cf6026016826014811061279e57fe5b01600283601481106127ac57fe5b01546040516127bc92919061481a565b60405180910390a18080600101915050612767565b505050565b6060602b60008373ffffffffffffffffffffffffffffffffffffffff1673ffffffffffffffffffffffffffffffffffffffff1681526020019081526020016000208054600181600116156101000203166002900480601f0160208091040260200160405190810160405280929190818152602001828054600181600116156101000203166002900480156128ab5780601f10612880576101008083540402835291602001916128ab565b820191906000526020600020905b81548152906001019060200180831161288e57829003601f168201915b50505050509050919050565b602e6020528060005260406000206000915054906101000a900473ffffffffffffffffffffffffffffffffffffffff1681565b602d60003373ffffffffffffffffffffffffffffffffffffffff1673ffffffffffffffffffffffffffffffffffffffff16815260200190815260200160002060006001815260200190815260200160002060009054906101000a900460ff1661295257600080fd5b602d60003373ffffffffffffffffffffffffffffffffffffffff1673ffffffffffffffffffffffffffffffffffffffff168152602001908152602001600020600080815260200190815260200160002060009054906101000a900460ff166129b957600080fd5b612b7b602b60003373ffffffffffffffffffffffffffffffffffffffff1673ffffffffffffffffffffffffffffffffffffffff1681526020019081526020016000208054600181600116156101000203166002900480601f016020809104026020016040519081016040528092919081815260200182805460018160011615610100020316600290048015612a8f5780601f10612a6457610100808354040283529160200191612a8f565b820191906000526020600020905b815481529060010190602001808311612a7257829003601f168201915b5050505050602e60003373ffffffffffffffffffffffffffffffffffffffff1673ffffffffffffffffffffffffffffffffffffffff16815260200190815260200160002060009054906101000a900473ffffffffffffffffffffffffffffffffffffffff1673ffffffffffffffffffffffffffffffffffffffff166395d89b416040518163ffffffff1660e01b815260040160006040518083038186803b158015612b3957600080fd5b505afa158015612b4d573d6000803e3d6000fd5b505050506040513d6000823e3d601f19601f82011682018060405250612b769190810190614253565b613c92565b612bba576040517f08c379a0000000000000000000000000000000000000000000000000000000008152600401612bb19061486a565b60405180910390fd5b602e60003373ffffffffffffffffffffffffffffffffffffffff1673ffffffffffffffffffffffffffffffffffffffff16815260200190815260200160002060009054906101000a900473ffffffffffffffffffffffffffffffffffffffff1673ffffffffffffffffffffffffffffffffffffffff166318160ddd6040518163ffffffff1660e01b815260040160206040518083038186803b158015612c5f57600080fd5b505afa158015612c73573d6000803e3d6000fd5b505050506040513d601f19601f82011682018060405250612c979190810190614294565b602c60003373ffffffffffffffffffffffffffffffffffffffff1673ffffffffffffffffffffffffffffffffffffffff1681526020019081526020016000205414612d17576040517f08c379a0000000000000000000000000000000000000000000000000000000008152600401612d0e9061490a565b60405180910390fd5b6000602e60003373ffffffffffffffffffffffffffffffffffffffff1673ffffffffffffffffffffffffffffffffffffffff16815260200190815260200160002060009054906101000a900473ffffffffffffffffffffffffffffffffffffffff1673ffffffffffffffffffffffffffffffffffffffff1663dd62ed3e30336040518363ffffffff1660e01b8152600401612db39291906146fc565b60206040518083038186803b158015612dcb57600080fd5b505afa158015612ddf573d6000803e3d6000fd5b505050506040513d601f19601f82011682018060405250612e039190810190614294565b14612e43576040517f08c379a0000000000000000000000000000000000000000000000000000000008152600401612e3a9061492a565b60405180910390fd5b6000602e60003373ffffffffffffffffffffffffffffffffffffffff1673ffffffffffffffffffffffffffffffffffffffff16815260200190815260200160002060009054906101000a900473ffffffffffffffffffffffffffffffffffffffff1673ffffffffffffffffffffffffffffffffffffffff166370a08231306040518263ffffffff1660e01b8152600401612edd91906146e1565b60206040518083038186803b158015612ef557600080fd5b505afa158015612f09573d6000803e3d6000fd5b505050506040513d601f19601f82011682018060405250612f2d9190810190614294565b14612f6d576040517f08c379a0000000000000000000000000000000000000000000000000000000008152600401612f64906148aa565b60405180910390fd5b602e60003373ffffffffffffffffffffffffffffffffffffffff1673ffffffffffffffffffffffffffffffffffffffff16815260200190815260200160002060009054906101000a900473ffffffffffffffffffffffffffffffffffffffff1673ffffffffffffffffffffffffffffffffffffffff1663095ea7b333600a6040518363ffffffff1660e01b8152600401613008929190614725565b602060405180830381600087803b15801561302257600080fd5b505af1158015613036573d6000803e3d6000fd5b505050506040513d601f19601f8201168201806040525061305a91908101906141d8565b613099576040517f08c379a00000000000000000000000000000000000000000000000000000000081526004016130909061484a565b60405180910390fd5b602d60003373ffffffffffffffffffffffffffffffffffffffff1673ffffffffffffffffffffffffffffffffffffffff16815260200190815260200160002060006002815260200190815260200160002060009054906101000a900460ff166131f7576001602d60003373ffffffffffffffffffffffffffffffffffffffff1673ffffffffffffffffffffffffffffffffffffffff16815260200190815260200160002060006002815260200190815260200160002060006101000a81548160ff021916908315150217905550600160009054906101000a900473ffffffffffffffffffffffffffffffffffffffff1673ffffffffffffffffffffffffffffffffffffffff1663158a49883360026040518363ffffffff1660e01b81526004016131c4929190614777565b600060405180830381600087803b1580156131de57600080fd5b505af11580156131f2573d6000803e3d6000fd5b505050505b565b600073ffffffffffffffffffffffffffffffffffffffff16602e60003373ffffffffffffffffffffffffffffffffffffffff1673ffffffffffffffffffffffffffffffffffffffff16815260200190815260200160002060009054906101000a900473ffffffffffffffffffffffffffffffffffffffff1673ffffffffffffffffffffffffffffffffffffffff1614156132c8576040517f08c379a00000000000000000000000000000000000000000000000000000000081526004016132bf906148ea565b60405180910390fd5b602e60003373ffffffffffffffffffffffffffffffffffffffff1673ffffffffffffffffffffffffffffffffffffffff16815260200190815260200160002060009054906101000a900473ffffffffffffffffffffffffffffffffffffffff1673ffffffffffffffffffffffffffffffffffffffff1663d48a87f1306040518263ffffffff1660e01b815260040161336091906146e1565b60206040518083038186803b15801561337857600080fd5b505afa15801561338c573d6000803e3d6000fd5b505050506040513d601f19601f820116820180604052506133b091908101906141d8565b156133ba57600080fd5b600060019050602e60003373ffffffffffffffffffffffffffffffffffffffff1673ffffffffffffffffffffffffffffffffffffffff16815260200190815260200160002060009054906101000a900473ffffffffffffffffffffffffffffffffffffffff1673ffffffffffffffffffffffffffffffffffffffff166321df0da76040518163ffffffff1660e01b8152600401602060405180830381600087803b15801561346757600080fd5b505af192505050801561349857506040513d601f19601f8201168201806040525061349591908101906141d8565b60015b6134a557600090506134aa565b809150505b80156134b557600080fd5b602d60003373ffffffffffffffffffffffffffffffffffffffff1673ffffffffffffffffffffffffffffffffffffffff16815260200190815260200160002060006005815260200190815260200160002060009054906101000a900460ff16613613576001602d60003373ffffffffffffffffffffffffffffffffffffffff1673ffffffffffffffffffffffffffffffffffffffff16815260200190815260200160002060006005815260200190815260200160002060006101000a81548160ff021916908315150217905550600160009054906101000a900473ffffffffffffffffffffffffffffffffffffffff1673ffffffffffffffffffffffffffffffffffffffff1663158a49883360016040518363ffffffff1660e01b81526004016135e092919061474e565b600060405180830381600087803b1580156135fa57600080fd5b505af115801561360e573d6000803e3d6000fd5b505050505b50565b60006020528060005260406000206000915054906101000a900460ff1681565b60306020528060005260406000206000915054906101000a900460ff1681565b60008073ffffffffffffffffffffffffffffffffffffffff16602e60003373ffffffffffffffffffffffffffffffffffffffff1673ffffffffffffffffffffffffffffffffffffffff16815260200190815260200160002060009054906101000a900473ffffffffffffffffffffffffffffffffffffffff1673ffffffffffffffffffffffffffffffffffffffff161415613726576040517f08c379a000000000000000000000000000000000000000000000000000000000815260040161371d906148ea565b60405180910390fd5b6000602e60003373ffffffffffffffffffffffffffffffffffffffff1673ffffffffffffffffffffffffffffffffffffffff16815260200190815260200160002060009054906101000a900473ffffffffffffffffffffffffffffffffffffffff1673ffffffffffffffffffffffffffffffffffffffff166370a08231306040518263ffffffff1660e01b81526004016137c091906146e1565b60206040518083038186803b1580156137d857600080fd5b505afa1580156137ec573d6000803e3d6000fd5b505050506040513d601f19601f820116820180604052506138109190810190614294565b9050602e60003373ffffffffffffffffffffffffffffffffffffffff1673ffffffffffffffffffffffffffffffffffffffff16815260200190815260200160002060009054906101000a900473ffffffffffffffffffffffffffffffffffffffff1673ffffffffffffffffffffffffffffffffffffffff1663a4821719655af3107a40006040518263ffffffff1660e01b81526004016020604051808303818588803b1580156138bf57600080fd5b505af11580156138d3573d6000803e3d6000fd5b50505050506040513d601f19601f820116820180604052506138f891908101906141d8565b506000602e60003373ffffffffffffffffffffffffffffffffffffffff1673ffffffffffffffffffffffffffffffffffffffff16815260200190815260200160002060009054906101000a900473ffffffffffffffffffffffffffffffffffffffff1673ffffffffffffffffffffffffffffffffffffffff166370a08231306040518263ffffffff1660e01b815260040161399391906146e1565b60206040518083038186803b1580156139ab57600080fd5b505afa1580156139bf573d6000803e3d6000fd5b505050506040513d601f19601f820116820180604052506139e39190810190614294565b9050808210613a27576040517f08c379a0000000000000000000000000000000000000000000000000000000008152600401613a1e9061488a565b60405180910390fd5b8181039250602e60003373ffffffffffffffffffffffffffffffffffffffff1673ffffffffffffffffffffffffffffffffffffffff16815260200190815260200160002060009054906101000a900473ffffffffffffffffffffffffffffffffffffffff1673ffffffffffffffffffffffffffffffffffffffff1663a4821719660110d9316ec0006040518263ffffffff1660e01b81526004016020604051808303818588803b158015613ada57600080fd5b505af1158015613aee573d6000803e3d6000fd5b50505050506040513d601f19601f82011682018060405250613b1391908101906141d8565b506000602e60003373ffffffffffffffffffffffffffffffffffffffff1673ffffffffffffffffffffffffffffffffffffffff16815260200190815260200160002060009054906101000a900473ffffffffffffffffffffffffffffffffffffffff1673ffffffffffffffffffffffffffffffffffffffff166370a08231306040518263ffffffff1660e01b8152600401613bae91906146e1565b60206040518083038186803b158015613bc657600080fd5b505afa158015613bda573d6000803e3d6000fd5b505050506040513d601f19601f82011682018060405250613bfe9190810190614294565b9050808210613c42576040517f08c379a0000000000000000000000000000000000000000000000000000000008152600401613c399061488a565b60405180910390fd5b60008282039050848111613c8b576040517f08c379a0000000000000000000000000000000000000000000000000000000008152600401613c82906148ca565b60405180910390fd5b5050505090565b600081604051602001613ca591906146ca565b6040516020818303038152906040528051906020012083604051602001613ccc91906146ca565b6040516020818303038152906040528051906020012014905092915050565b828054600181600116156101000203166002900490600052602060002090601f016020900481019282601f10613d245780548555613d61565b82800160010185558215613d6157600052602060002091601f016020900482015b82811115613d60578254825591600101919060010190613d45565b5b509050613d6e9190613e05565b5090565b8260148101928215613da1579160200282015b82811115613da0578251825591602001919060010190613d85565b5b509050613dae9190613e05565b5090565b8260148101928215613df4579160200282015b82811115613df3578251829080519060200190613de3929190613e2a565b5091602001919060010190613dc5565b5b509050613e019190613eaa565b5090565b613e2791905b80821115613e23576000816000905550600101613e0b565b5090565b90565b828054600181600116156101000203166002900490600052602060002090601f016020900481019282601f10613e6b57805160ff1916838001178555613e99565b82800160010185558215613e99579182015b82811115613e98578251825591602001919060010190613e7d565b5b509050613ea69190613e05565b5090565b613ed391905b80821115613ecf5760008181613ec69190613ed6565b50600101613eb0565b5090565b90565b50805460018160011615610100020316600290046000825580601f10613efc5750613f1b565b601f016020900490600052602060002090810190613f1a9190613e05565b5b50565b600081359050613f2d81614bbc565b92915050565b600082601f830112613f4457600080fd5b6014613f57613f5282614992565b614965565b9150818360005b83811015613f8e5781358601613f74888261404b565b845260208401935060208301925050600181019050613f5e565b5050505092915050565b600082601f830112613fa957600080fd5b6014613fbc613fb7826149b4565b614965565b91508183856020840282011115613fd257600080fd5b60005b838110156140025781613fe888826140f3565b845260208401935060208301925050600181019050613fd5565b5050505092915050565b60008151905061401b81614bd3565b92915050565b60008135905061403081614bea565b92915050565b60008135905061404581614c01565b92915050565b600082601f83011261405c57600080fd5b813561406f61406a826149d6565b614965565b9150808252602083016020830185838301111561408b57600080fd5b614096838284614b69565b50505092915050565b600082601f8301126140b057600080fd5b81516140c36140be82614a02565b614965565b915080825260208301602083018583830111156140df57600080fd5b6140ea838284614b78565b50505092915050565b60008135905061410281614c18565b92915050565b60008151905061411781614c18565b92915050565b60006020828403121561412f57600080fd5b600061413d84828501613f1e565b91505092915050565b6000806040838503121561415957600080fd5b600061416785828601613f1e565b9250506020614178858286016140f3565b9150509250929050565b6000806102a0838503121561419657600080fd5b60006141a485828601613f98565b92505061028083013567ffffffffffffffff8111156141c257600080fd5b6141ce85828601613f33565b9150509250929050565b6000602082840312156141ea57600080fd5b60006141f88482850161400c565b91505092915050565b60006020828403121561421357600080fd5b600061422184828501614021565b91505092915050565b60006020828403121561423c57600080fd5b600061424a84828501614036565b91505092915050565b60006020828403121561426557600080fd5b600082015167ffffffffffffffff81111561427f57600080fd5b61428b8482850161409f565b91505092915050565b6000602082840312156142a657600080fd5b60006142b484828501614108565b91505092915050565b6142c681614ad9565b82525050565b6142d581614a87565b82525050565b6142e481614aeb565b82525050565b6142f381614b0f565b82525050565b61430281614b21565b82525050565b61431181614b33565b82525050565b600061432282614a4e565b61432c8185614a59565b935061433c818560208601614b78565b61434581614bab565b840191505092915050565b600061435b82614a4e565b6143658185614a6a565b9350614375818560208601614b78565b80840191505092915050565b600061438c82614a43565b6143968185614a59565b93506143a6818560208601614b78565b6143af81614bab565b840191505092915050565b6000815460018116600081146143d757600181146143fd57614441565b607f60028304166143e88187614a59565b955060ff198316865260208601935050614441565b6002820461440b8187614a59565b955061441685614a2e565b60005b8281101561443857815481890152600182019150602081019050614419565b80880195505050505b505092915050565b6000614456601783614a59565b91507f417070726f7665206e6f7420696d706c656d656e7465640000000000000000006000830152602082019050919050565b6000614496601083614a59565b91507f496e636f7272656374207469636b6572000000000000000000000000000000006000830152602082019050919050565b60006144d6601e83614a59565b91507f546f6b656e2062616c616e636520646964206e6f7420696e63726561736500006000830152602082019050919050565b6000614516602c83614a59565b91507f42616c616e63654f66206e6f7420696d706c656d656e746564206f7220696e6360008301527f6f72726563746c792073657400000000000000000000000000000000000000006020830152604082019050919050565b600061457c602283614a59565b91507f5365636f6e642062757920616d6f756e74206c6f776572207468616e2066697260008301527f73740000000000000000000000000000000000000000000000000000000000006020830152604082019050919050565b60006145e2601c83614a59565b91507f53747564656e74204552433230206e6f742072656769737465726564000000006000830152602082019050919050565b6000614622601083614a59565b91507f496e636f727265637420737570706c79000000000000000000000000000000006000830152602082019050919050565b6000614662602c83614a59565b91507f416c6c6f77616e6365206e6f7420696d706c656d656e746564206f7220696e6360008301527f6f72726563746c792073657400000000000000000000000000000000000000006020830152604082019050919050565b6146c481614acf565b82525050565b60006146d68284614350565b915081905092915050565b60006020820190506146f660008301846142bd565b92915050565b600060408201905061471160008301856142bd565b61471e60208301846142bd565b9392505050565b600060408201905061473a60008301856142bd565b61474760208301846142ea565b9392505050565b600060408201905061476360008301856142bd565b61477060208301846142f9565b9392505050565b600060408201905061478c60008301856142bd565b6147996020830184614308565b9392505050565b60006020820190506147b560008301846142cc565b92915050565b60006020820190506147d060008301846142db565b92915050565b600060208201905081810360008301526147f08184614381565b905092915050565b600060208201905081810360008301526148128184614317565b905092915050565b6000604082019050818103600083015261483481856143ba565b905061484360208301846146bb565b9392505050565b6000602082019050818103600083015261486381614449565b9050919050565b6000602082019050818103600083015261488381614489565b9050919050565b600060208201905081810360008301526148a3816144c9565b9050919050565b600060208201905081810360008301526148c381614509565b9050919050565b600060208201905081810360008301526148e38161456f565b9050919050565b60006020820190508181036000830152614903816145d5565b9050919050565b6000602082019050818103600083015261492381614615565b9050919050565b6000602082019050818103600083015261494381614655565b9050919050565b600060208201905061495f60008301846146bb565b92915050565b6000604051905081810181811067ffffffffffffffff8211171561498857600080fd5b8060405250919050565b600067ffffffffffffffff8211156149a957600080fd5b602082029050919050565b600067ffffffffffffffff8211156149cb57600080fd5b602082029050919050565b600067ffffffffffffffff8211156149ed57600080fd5b601f19601f8301169050602081019050919050565b600067ffffffffffffffff821115614a1957600080fd5b601f19601f8301169050602081019050919050565b60008190508160005260206000209050919050565b600081519050919050565b600081519050919050565b600082825260208201905092915050565b600081905092915050565b6000614a8082614aaf565b9050919050565b60008115159050919050565b6000819050919050565b6000614aa882614a75565b9050919050565b600073ffffffffffffffffffffffffffffffffffffffff82169050919050565b6000819050919050565b6000614ae482614b45565b9050919050565b6000614af682614afd565b9050919050565b6000614b0882614aaf565b9050919050565b6000614b1a82614acf565b9050919050565b6000614b2c82614acf565b9050919050565b6000614b3e82614acf565b9050919050565b6000614b5082614b57565b9050919050565b6000614b6282614aaf565b9050919050565b82818337600083830152505050565b60005b83811015614b96578082015181840152602081019050614b7b565b83811115614ba5576000848401525b50505050565b6000601f19601f8301169050919050565b614bc581614a75565b8114614bd057600080fd5b50565b614bdc81614a87565b8114614be757600080fd5b50565b614bf381614a93565b8114614bfe57600080fd5b50565b614c0a81614a9d565b8114614c1557600080fd5b50565b614c2181614acf565b8114614c2c57600080fd5b5056fea2646970667358221220912dbf4c76502b560f82d22cbb892e69c23ae04d4e8cade3b81a988533e307bd64736f6c63430006000033",
  "source": "pragma solidity ^0.6.0;\npragma experimental ABIEncoderV2;\n\nimport \"./ERC20TD.sol\";\nimport \"./ExerciceSolution.sol\";\n\ncontract Evaluator \n{\n\tmapping(address => bool) public teachers;\n\tERC20TD TDERC20;\n\n\tuint256[20] private randomSupplies;\n\tstring[20] private randomTickers;\n \tuint public nextValueStoreRank;\n\n \tmapping(address => string) public assignedTicker;\n \tmapping(address => uint256) public assignedSupply;\n \tmapping(address => mapping(uint256 => bool)) public exerciceProgression;\n \tmapping(address => ExerciceSolution) public studentErc20;\n \tmapping(address => uint256) public ex8Tier1AmountBought;\n \tmapping(address => bool) public hasBeenPaired;\n\n \tevent newRandomTickerAndSupply(string ticker, uint256 supply);\n \tevent constructedCorrectly(address erc20Address);\n\tconstructor(ERC20TD _TDERC20) \n\tpublic \n\t{\n\t\tTDERC20 = _TDERC20;\n\t\temit constructedCorrectly(address(TDERC20));\n\n\t}\n\n\tfallback () external payable \n\t{}\n\n\treceive () external payable \n\t{}\n\n\n\tfunction ex1_getTickerAndSupply()\n\tpublic\n\t{\n\t\tassignedSupply[msg.sender] = randomSupplies[nextValueStoreRank]*1000000000000000000;\n\t\t// assignedTicker[msg.sender] = bytes32ToString(randomTickers[nextValueStoreRank]);\n\t\tassignedTicker[msg.sender] = randomTickers[nextValueStoreRank];\n\n\t\tnextValueStoreRank += 1;\n\t\tif (nextValueStoreRank >= 20)\n\t\t{\n\t\t\tnextValueStoreRank = 0;\n\t\t}\n\n\t\t// Crediting points\n\t\tif (!exerciceProgression[msg.sender][1])\n\t\t{\n\t\t\texerciceProgression[msg.sender][1] = true;\n\t\t\tTDERC20.distributeTokens(msg.sender, 1);\n\t\t}\n\t}\n\n\tfunction ex2_testErc20TickerAndSupply()\n\tpublic\n\t{\n\t\t// Checking ticker and supply were received\n\t\trequire(exerciceProgression[msg.sender][1]);\n\n\t\t// Checking exercice was submitted\n\t\trequire(exerciceProgression[msg.sender][0]);\n\n\t\t// Checking ticker was set properly\n\t\trequire(_compareStrings(assignedTicker[msg.sender], studentErc20[msg.sender].symbol()), \"Incorrect ticker\");\n\t\t// Checking supply was set properly\n\t\trequire(assignedSupply[msg.sender] == studentErc20[msg.sender].totalSupply(), \"Incorrect supply\");\n\t\t// Checking some ERC20 functions were created\n\t\trequire(studentErc20[msg.sender].allowance(address(this), msg.sender) == 0, \"Allowance not implemented or incorrectly set\");\n\t\trequire(studentErc20[msg.sender].balanceOf(address(this)) == 0, \"BalanceOf not implemented or incorrectly set\");\n\t\trequire(studentErc20[msg.sender].approve(msg.sender, 10), \"Approve not implemented\");\n\n\t\t// Crediting points\n\t\tif (!exerciceProgression[msg.sender][2])\n\t\t{\n\t\t\texerciceProgression[msg.sender][2] = true;\n\t\t\t// Creating ERC20\n\t\t\tTDERC20.distributeTokens(msg.sender, 2);\n\t\t}\n\n\t}\n\n\tfunction ex3_testGetToken()\n\tpublic\n\t{\n\t\t// Checking ERC20 was created\n\t\trequire(address(studentErc20[msg.sender]) != address(0), \"Student ERC20 not registered\");\n\n\t\t// Retrieving initial balance\n\t\tuint256 initialBalance = studentErc20[msg.sender].balanceOf(address(this));\n\n\t\t// Call getToken\n\t\tstudentErc20[msg.sender].getToken();\n\n\t\t// Retrieving final balance\n\t\tuint256 finalBalance = studentErc20[msg.sender].balanceOf(address(this));\n\n\t\trequire(initialBalance < finalBalance, \"Token balance did not increase\");\n\n\t\tif (!exerciceProgression[msg.sender][3])\n\t\t{\n\t\t\texerciceProgression[msg.sender][3] = true;\n\t\t\t// Distribute points\n\t\t\tTDERC20.distributeTokens(msg.sender, 2);\n\n\t\t}\n\t}\n\n\tfunction ex4_testBuyToken()\n\tpublic\n\t{\n\n\t\t_testBuyToken();\n\n\t\tif (!exerciceProgression[msg.sender][4])\n\t\t{\n\t\t\texerciceProgression[msg.sender][4] = true;\n\t\t\t// Distribute points\n\t\t\tTDERC20.distributeTokens(msg.sender, 2);\n\t\t}\n\t}\n\n\tfunction ex5_testDenyListing()\n\tpublic\n\t{\n\t\t// Checking ERC20 was created\n\t\trequire(address(studentErc20[msg.sender]) != address(0), \"Student ERC20 not registered\");\n\n\t\trequire(!studentErc20[msg.sender].isCustomerWhiteListed(address(this)));\n\n\t\tbool wasBuyAccepted = true;\n\t\ttry studentErc20[msg.sender].getToken() returns (bool v) \n\t\t{\n\t\t\twasBuyAccepted = v;\n        } \n        catch \n        {\n            // This is executed in case revert() was used.\n            wasBuyAccepted = false;\n        }\n\n        require(!wasBuyAccepted);\n\n        if (!exerciceProgression[msg.sender][5])\n\t\t{\n\t\t\texerciceProgression[msg.sender][5] = true;\n\t\t\t// Distribute points\n\t\t\tTDERC20.distributeTokens(msg.sender, 1);\n\t\t}\n\t}\n\n\tfunction ex6_testAllowListing()\n\tpublic\n\t{\n\t\t// Checking ERC20 was created\n\t\trequire(address(studentErc20[msg.sender]) != address(0), \"Student ERC20 not registered\");\n\t\t// Checking ex5 was done\n\t\trequire(exerciceProgression[msg.sender][5]);\n\n\t\t// Check if the current contract is whitelisted\n\t\trequire(studentErc20[msg.sender].isCustomerWhiteListed(address(this)));\n\n\t\t// Trying to buy\n\t\tex3_testGetToken();\n\n        if (!exerciceProgression[msg.sender][6])\n\t\t{\n\t\t\texerciceProgression[msg.sender][6] = true;\n\t\t\t// Distribute points\n\t\t\tTDERC20.distributeTokens(msg.sender, 2);\n\t\t}\n\t}\n\n\tfunction ex7_testDenyListing()\n\tpublic\n\t{\n\t\t// Checking ERC20 was created\n\t\trequire(address(studentErc20[msg.sender]) != address(0), \"Student ERC20 not registered\");\n\n\t\trequire(!studentErc20[msg.sender].isCustomerWhiteListed(address(this)));\n\n\t\trequire(studentErc20[msg.sender].customerTierLevel(address(this)) == 0);\n\n\t\tbool wasBuyAccepted = true;\n\t\ttry studentErc20[msg.sender].buyToken.value(0.0001 ether)() returns (bool v) \n\t\t{\n\t\t\twasBuyAccepted = v;\n        } \n        catch \n        {\n            // This is executed in case revert() was used.\n            wasBuyAccepted = false;\n        }\n\n        require(!wasBuyAccepted);\n\n        if (!exerciceProgression[msg.sender][7])\n\t\t{\n\t\t\texerciceProgression[msg.sender][7] = true;\n\t\t\t// Distribute points\n\t\t\tTDERC20.distributeTokens(msg.sender, 1);\n\t\t}\n\t}\n\n\tfunction ex8_testTier1Listing()\n\tpublic\n\t{\n\t\t// Checking ERC20 was created\n\t\trequire(address(studentErc20[msg.sender]) != address(0), \"Student ERC20 not registered\");\n\t\t// Checking ex7 was done\n\t\trequire(exerciceProgression[msg.sender][7]);\n\n\t\t// Check if the current contract is whitelisted\n\t\trequire(studentErc20[msg.sender].isCustomerWhiteListed(address(this)));\n\n\t\t// Check if the current contract has the correct tier level\n\t\trequire(studentErc20[msg.sender].customerTierLevel(address(this)) == 1);\n\n\t\t// Trying to buy\n\t\tex8Tier1AmountBought[msg.sender] = _testBuyToken();\n\n        if (!exerciceProgression[msg.sender][8])\n\t\t{\n\t\t\texerciceProgression[msg.sender][8] = true;\n\t\t\t// Distribute points\n\t\t\tTDERC20.distributeTokens(msg.sender, 2);\n\t\t}\n\t}\n\n\tfunction ex9_testTier2Listing()\n\tpublic\n\t{\n\t\t// Checking ERC20 was created\n\t\trequire(address(studentErc20[msg.sender]) != address(0), \"Student ERC20 not registered\");\n\t\t// Checking ex7 was done\n\t\trequire(exerciceProgression[msg.sender][7]);\n\n\t\t// Check if the current contract is whitelisted\n\t\trequire(studentErc20[msg.sender].isCustomerWhiteListed(address(this)));\n\n\t\t// Check if the current contract has the correct tier level\n\t\trequire(studentErc20[msg.sender].customerTierLevel(address(this)) == 2);\n\n\t\t// Trying to buy\n\t\tuint256 tier2AmountBought = _testBuyToken();\n\n\t\t// Checking that bought amount is twice what was bought before, for the same price\n\t\trequire(tier2AmountBought == 2 * ex8Tier1AmountBought[msg.sender]);\n\n        if (!exerciceProgression[msg.sender][9])\n\t\t{\n\t\t\texerciceProgression[msg.sender][9] = true;\n\t\t\t// Distribute points\n\t\t\tTDERC20.distributeTokens(msg.sender, 2);\n\t\t}\n\t}\n\n\n\t/* Internal functions and modifiers */ \n\n\n\tmodifier onlyTeachers() \n\t{\n\n\t    require(TDERC20.teachers(msg.sender));\n\t    _;\n\t}\n\n\tfunction submitExercice(ExerciceSolution studentExercice)\n\tpublic\n\t{\n\t\t// Checking this contract was not used by another group before\n\t\trequire(!hasBeenPaired[address(studentExercice)]);\n\n\t\t// Assigning passed ERC20 as student ERC20\n\t\tstudentErc20[msg.sender] = studentExercice;\n\t\thasBeenPaired[address(studentExercice)] = true;\n\t\tif (!exerciceProgression[msg.sender][0])\n\t\t{\n\t\t\texerciceProgression[msg.sender][0] = true;\n\t\t\t// Setup points\n\t\t\tTDERC20.distributeTokens(msg.sender, 2);\n\t\t\t// Creating contract points\n\t\t\tTDERC20.distributeTokens(msg.sender, 2);\n\t\t\t// Deploying contract points\n\t\t\tTDERC20.distributeTokens(msg.sender, 1);\n\t\t}\n\t\t\t\n\t}\n\n\tfunction _compareStrings(string memory a, string memory b) \n\tinternal \n\tpure \n\treturns (bool) \n\t{\n    \treturn (keccak256(abi.encodePacked((a))) == keccak256(abi.encodePacked((b))));\n\t}\n\n\tfunction bytes32ToString(bytes32 _bytes32) \n\tpublic \n\tpure returns (string memory) \n\t{\n        uint8 i = 0;\n        while(i < 32 && _bytes32[i] != 0) {\n            i++;\n        }\n        bytes memory bytesArray = new bytes(i);\n        for (i = 0; i < 32 && _bytes32[i] != 0; i++) {\n            bytesArray[i] = _bytes32[i];\n        }\n        return string(bytesArray);\n    }\n\n\tfunction _testBuyToken()\n\tinternal\n\treturns(uint256 firstBuyAmount)\n\t{\n\t\t\t\t// Checking ERC20 was created\n\t\trequire(address(studentErc20[msg.sender]) != address(0), \"Student ERC20 not registered\");\n\n\t\t// Retrieving initial balance\n\t\tuint256 initialBalance = studentErc20[msg.sender].balanceOf(address(this));\n\n\t\t// Call buyToken\n\t\tstudentErc20[msg.sender].buyToken.value(0.0001 ether)();\n\n\t\t// Retrieving intermediate balance\n\t\tuint256 intermediateBalance = studentErc20[msg.sender].balanceOf(address(this));\n\n\t\trequire(initialBalance < intermediateBalance, \"Token balance did not increase\");\n\n\t\tfirstBuyAmount = intermediateBalance - initialBalance;\n\n\t\t// Call buyToken again\n\t\tstudentErc20[msg.sender].buyToken.value(0.0003 ether)();\n\n\t\t// Retrieving final balance\n\t\tuint256 finalBalance = studentErc20[msg.sender].balanceOf(address(this));\n\n\t\trequire(intermediateBalance < finalBalance, \"Token balance did not increase\");\n\n\t\tuint256 secondBuyAmount = finalBalance - intermediateBalance;\n\n\t\t// Check that second buy amount was a different amount that first buy amount\n\n\t\trequire(secondBuyAmount > firstBuyAmount, \"Second buy amount lower than first\");\n\t}\n\n\tfunction readTicker(address studentAddres)\n\tpublic\n\tview\n\treturns(string memory)\n\t{\n\t\treturn assignedTicker[studentAddres];\n\t}\n\n\tfunction readSupply(address studentAddres)\n\tpublic\n\tview\n\treturns(uint256)\n\t{\n\t\treturn assignedSupply[studentAddres];\n\t}\n\n\tfunction setRandomTickersAndSupply(uint256[20] memory _randomSupplies, string[20] memory _randomTickers) \n\tpublic \n\tonlyTeachers\n\t{\n\t\trandomSupplies = _randomSupplies;\n\t\trandomTickers = _randomTickers;\n\t\tnextValueStoreRank = 0;\n\t\tfor (uint i = 0; i < 20; i++)\n\t\t{\n\t\t\temit newRandomTickerAndSupply(randomTickers[i], randomSupplies[i]);\n\t\t}\n\t}\n}\n",
  "sourcePath": "/home/pibastte/Documents/Cours/BlockChainProgramming/TD5_new/erc20-101-main/contracts/Evaluator.sol",
  "compiler": {
    "name": "solc",
    "version": "0.6.0+commit.26b70077.Emscripten.clang"
  },
  "schemaVersion": "3.4.3",
  "updatedAt": "2021-11-28T22:57:23.612Z",
  "devdoc": {
    "methods": {}
  },
  "userdoc": {
    "methods": {}
  }
}